{
  "_format": "hh-sol-artifact-1",
  "contractName": "Greeter",
  "sourceName": "contracts/Greeter.sol",
  "abi": [
    {
      "inputs": [],
      "stateMutability": "nonpayable",
      "type": "constructor"
    },
    {
      "inputs": [],
      "name": "getMessage",
      "outputs": [
        {
          "internalType": "string",
          "name": "",
          "type": "string"
        }
      ],
      "stateMutability": "view",
      "type": "function"
    },
    {
      "inputs": [],
      "name": "getMessages",
      "outputs": [
        {
          "internalType": "string[]",
          "name": "",
          "type": "string[]"
        }
      ],
      "stateMutability": "view",
      "type": "function"
    },
    {
      "inputs": [],
      "name": "message",
      "outputs": [
        {
          "internalType": "string",
          "name": "",
          "type": "string"
        }
      ],
      "stateMutability": "view",
      "type": "function"
    },
    {
      "inputs": [
        {
          "internalType": "uint256",
          "name": "",
          "type": "uint256"
        }
      ],
      "name": "messageArr",
      "outputs": [
        {
          "internalType": "string",
          "name": "",
          "type": "string"
        }
      ],
      "stateMutability": "view",
      "type": "function"
    },
    {
      "inputs": [],
      "name": "owner",
      "outputs": [
        {
          "internalType": "address",
          "name": "",
          "type": "address"
        }
      ],
      "stateMutability": "view",
      "type": "function"
    },
    {
      "inputs": [
        {
          "internalType": "string",
          "name": "_message",
          "type": "string"
        }
      ],
      "name": "setMessage",
      "outputs": [],
      "stateMutability": "nonpayable",
      "type": "function"
    }
  ],
  "bytecode": "0x60806040523480156200001157600080fd5b5033600260006101000a81548173ffffffffffffffffffffffffffffffffffffffff021916908373ffffffffffffffffffffffffffffffffffffffff1602179055506040518060400160405280601a81526020017f5468697320697320746865206669727374206d6573736167652100000000000081525060009080519060200190620000a0929190620000ec565b506001600090806001815401808255809150506001900390600052602060002001600090919091909150908054620000d89062000234565b620000e59291906200017d565b5062000299565b828054620000fa9062000234565b90600052602060002090601f0160209004810192826200011e57600085556200016a565b82601f106200013957805160ff19168380011785556200016a565b828001600101855582156200016a579182015b82811115620001695782518255916020019190600101906200014c565b5b50905062000179919062000215565b5090565b8280546200018b9062000234565b90600052602060002090601f016020900481019282620001af576000855562000202565b82601f10620001c2578054855562000202565b828001600101855582156200020257600052602060002091601f016020900482015b8281111562000201578254825591600101919060010190620001e4565b5b50905062000211919062000215565b5090565b5b808211156200023057600081600090555060010162000216565b5090565b600060028204905060018216806200024d57607f821691505b602082108114156200026457620002636200026a565b5b50919050565b7f4e487b7100000000000000000000000000000000000000000000000000000000600052602260045260246000fd5b610a0480620002a96000396000f3fe608060405234801561001057600080fd5b50600436106100625760003560e01c806319b2361114610067578063368b8772146100975780635ff6cbf3146100b35780638da5cb5b146100d1578063ce6d41de146100ef578063e21f37ce1461010d575b600080fd5b610081600480360381019061007c919061063f565b61012b565b60405161008e91906107af565b60405180910390f35b6100b160048036038101906100ac91906105fe565b6101d7565b005b6100bb610232565b6040516100c8919061078d565b60405180910390f35b6100d961030b565b6040516100e69190610772565b60405180910390f35b6100f7610331565b60405161010491906107af565b60405180910390f35b6101156103c3565b60405161012291906107af565b60405180910390f35b6001818154811061013b57600080fd5b90600052602060002001600091509050805461015690610916565b80601f016020809104026020016040519081016040528092919081815260200182805461018290610916565b80156101cf5780601f106101a4576101008083540402835291602001916101cf565b820191906000526020600020905b8154815290600101906020018083116101b257829003601f168201915b505050505081565b80600090805190602001906101ed929190610451565b50600160009080600181540180825580915050600190039060005260206000200160009091909190915090805461022390610916565b61022e9291906104d7565b5050565b60606001805480602002602001604051908101604052809291908181526020016000905b8282101561030257838290600052602060002001805461027590610916565b80601f01602080910402602001604051908101604052809291908181526020018280546102a190610916565b80156102ee5780601f106102c3576101008083540402835291602001916102ee565b820191906000526020600020905b8154815290600101906020018083116102d157829003601f168201915b505050505081526020019060010190610256565b50505050905090565b600260009054906101000a900473ffffffffffffffffffffffffffffffffffffffff1681565b60606000805461034090610916565b80601f016020809104026020016040519081016040528092919081815260200182805461036c90610916565b80156103b95780601f1061038e576101008083540402835291602001916103b9565b820191906000526020600020905b81548152906001019060200180831161039c57829003601f168201915b5050505050905090565b600080546103d090610916565b80601f01602080910402602001604051908101604052809291908181526020018280546103fc90610916565b80156104495780601f1061041e57610100808354040283529160200191610449565b820191906000526020600020905b81548152906001019060200180831161042c57829003601f168201915b505050505081565b82805461045d90610916565b90600052602060002090601f01602090048101928261047f57600085556104c6565b82601f1061049857805160ff19168380011785556104c6565b828001600101855582156104c6579182015b828111156104c55782518255916020019190600101906104aa565b5b5090506104d39190610564565b5090565b8280546104e390610916565b90600052602060002090601f0160209004810192826105055760008555610553565b82601f106105165780548555610553565b8280016001018555821561055357600052602060002091601f016020900482015b82811115610552578254825591600101919060010190610537565b5b5090506105609190610564565b5090565b5b8082111561057d576000816000905550600101610565565b5090565b600061059461058f84610802565b6107d1565b9050828152602081018484840111156105ac57600080fd5b6105b78482856108d4565b509392505050565b600082601f8301126105d057600080fd5b81356105e0848260208601610581565b91505092915050565b6000813590506105f8816109b7565b92915050565b60006020828403121561061057600080fd5b600082013567ffffffffffffffff81111561062a57600080fd5b610636848285016105bf565b91505092915050565b60006020828403121561065157600080fd5b600061065f848285016105e9565b91505092915050565b60006106748383610700565b905092915050565b61068581610898565b82525050565b600061069682610842565b6106a08185610865565b9350836020820285016106b285610832565b8060005b858110156106ee57848403895281516106cf8582610668565b94506106da83610858565b925060208a019950506001810190506106b6565b50829750879550505050505092915050565b600061070b8261084d565b6107158185610876565b93506107258185602086016108e3565b61072e816109a6565b840191505092915050565b60006107448261084d565b61074e8185610887565b935061075e8185602086016108e3565b610767816109a6565b840191505092915050565b6000602082019050610787600083018461067c565b92915050565b600060208201905081810360008301526107a7818461068b565b905092915050565b600060208201905081810360008301526107c98184610739565b905092915050565b6000604051905081810181811067ffffffffffffffff821117156107f8576107f7610977565b5b8060405250919050565b600067ffffffffffffffff82111561081d5761081c610977565b5b601f19601f8301169050602081019050919050565b6000819050602082019050919050565b600081519050919050565b600081519050919050565b6000602082019050919050565b600082825260208201905092915050565b600082825260208201905092915050565b600082825260208201905092915050565b60006108a3826108aa565b9050919050565b600073ffffffffffffffffffffffffffffffffffffffff82169050919050565b6000819050919050565b82818337600083830152505050565b60005b838110156109015780820151818401526020810190506108e6565b83811115610910576000848401525b50505050565b6000600282049050600182168061092e57607f821691505b6020821081141561094257610941610948565b5b50919050565b7f4e487b7100000000000000000000000000000000000000000000000000000000600052602260045260246000fd5b7f4e487b7100000000000000000000000000000000000000000000000000000000600052604160045260246000fd5b6000601f19601f8301169050919050565b6109c0816108ca565b81146109cb57600080fd5b5056fea2646970667358221220365e3c2e60aaaf9b09b0c8be4bd2b2cc1dcb08ca5ca9800704a59814e7a81e2764736f6c63430008000033",
  "linkReferences": {},
  "deployedLinkReferences": {}
}